:020000040000fa
:080000000001040000000000f3
:020000040000fa
:100008009401000094010000940100009401000094
:100018009401000094010000940100009401000084
:1000280094010000940100009401000050020000b7
:100038009401000094010000940100009401000064
:1000480094010000b2010000940100009401000036
:100058009401000094010000940100009401000044
:100068009401000094010000940100009401000034
:100078009401000094010000940100009401000024
:100088009401000094010000940100009401000014
:100098009401000094010000940100009401000004
:1000a80094010000940100009401000094010000f4
:1000b80094010000940100009401000094010000e4
:1000c80094010000940100009401000094010000d4
:1000d80094010000940100009401000094010000c4
:1000e80094010000940100009401000094010000b4
:0800f8009401000094010000d6
:020000040000fa
:100108009401000094010000940100009401000093
:100118009401000094010000940100009401000083
:1001280094010000940100009401000050020000b6
:100138009401000094010000940100009401000063
:1001480094010000b2010000940100009401000035
:100158009401000094010000940100009401000043
:100168009401000094010000940100009401000033
:100178009401000094010000940100009401000023
:100188009401000094010000940100009401000013
:100198009401000094010000940100009401000003
:1001a80094010000940100009401000094010000f3
:1001b80094010000940100009401000094010000e3
:1001c80094010000940100009401000094010000d3
:1001d80094010000940100009401000094010000c3
:1001e80094010000940100009401000094010000b3
:0801f8009401000094010000d5
:020000040000fa
:100200008f8020000eff20000e01880000000000fb
:1002100000012000200288000c000700a03320000d
:100220000100200011000700000020000000e00095
:100230000200320000000200000000006e02020016
:10024000000000000040da000000fe004440a90069
:10025000000020000000e000030032000000200049
:10026000a00188004440a800000006009101880019
:10027000800078000000eb0015003700e2804000ad
:1002800032a0b4009101ba00e280400032a0b40074
:100290009102ba00e280400032a0b4000002eb00fc
:1002a000472bde00f507b200602ce10004003a00a5
:1002b0000059eb008301e900fdff3e000400370018
:1002c0006128e100010032000082eb000400070019
:1002d0001101ba000200e000e8ff3a000000060049
:1002e0003159ba008301e9000c0032002159ba00eb
:1002f0008301e900080032000400e00003003a0036
:10030000e280400032a0b400f5ff370011d9ba00f6
:100310008301e900faff3a008100e800e180400033
:1003200032a0b400000006000040da000000fe0029
:020000040000fa
:100330000000fa0074202000a41088000d42a900db
:100340008d20a80075108000c4ff2f000482620079
:10035000741088000de2a8000f42a8000080fa0087
:1003600000000600801f7800841f78003400f80029
:1003700000002000a00188000000fa008520a900ec
:10038000941080000440880014408000e00f520068
:1003900006003200044080000442780004407800e7
:1003a00004e8b7000002eb00144088000080fa0067
:1003b0003400f9004f0278004f007800004006003a
:1003c0000200fa00000f78000000000075108000a5
:1003d0000410200004826200e00f5200fbff320094
:1003e0006410800066026200e60f520003003a00cb
:1003f0001e0278008410880003003700f40f2000ec
:100400001e026200841088000080fa0000000600ce
:100410000000fa00881f7800000478000f00370001
:10042000184278000402fb0004007800e4ff070093
:1004300018427800ed4f520002003a00a000200060
:10044000dfff070018427800ea4f520002003a002e
:10045000d0002000daff07000804e8001842780006
:10046000e04f5200eeff3a004f0478000080fa009f
:10047000000006000200fa00000f78000002eb0006
:1004800034408800000000009e0278003440800064
:10049000848f5200fcff3e000080fa00000006003e
:1004a000841f78003400f80004002000a4018800b4
:1004b0000000fa000002eb000408880034408000cd
:1004c0000402e800344088008460a9000080fa003b
:1004d0003400f9004f027800004006000000fa00e6
:1004e0000082eb00441588000002eb0034168800ff
:1004f0000002eb0094168800d602a800d622a800bd
:100500008bff0700500007001400200014408800f3
:1005100044802000144278000482fb00040078002c
:10052000a7ff0700458020009542780054c7b3001c
:1005300084cf52000c003a00ca02a800cb42a900a6
:10054000cb62a900cb82a900800c2000c9ff070064
:100550000042eb000440780004e8b70014002000db
:1005600014408800eaff370045802000954278005b
:1005700044c6b30084cf52000c003a00ca02a9005e
:10058000cb42a800cb62a900cb82a900800c20003e
:10059000b8ff07000042eb000440780004e8b70011
:1005a0001400200014408800d9ff37004580200047
:1005b00095427800c4c6b30084cf52000c003a00c4
:1005c000ca02a800cb42a900cb62a800cb82a90036
:1005d000800c2000a7ff07000042eb0004407800d9
:1005e00004e8b7001400200014408800c8ff37005a
:1005f000458020009542780024c7b30084cf520084
:100600000c003a00ca02a800cb42a900cb62a900a4
:10061000cb82a800800c200096ff07000042eb0070
:100620000440780004e8b70014002000144088005b
:10063000b7ff3700ca02a900cb42a900cb62a900cc
:10064000cb82a900b2ff37000000fa000002eb00e5
:100650000408880004712200640888000421a900ad
:100660008460a9008c60a80005e1a8000080fa0061
:040670000000060080
:020000040000fa
:100674000008000006000000020000000000000066
:100684000000000006080000020000000000000056
:040694000000000062
:020000040000fa
:0200000401f009
:04000000e5bf000058
:020000040000fa
:0200000401f009
:04000400ff7f00007a
:00000001FF
