:020000040000fa
:080000000001040000000000f3
:020000040000fa
:100008009401000094010000940100009401000094
:100018009401000094010000940100009401000084
:100028009401000094010000940100009401000074
:100038009401000094010000940100009401000064
:1000480094010000da010000940100004c02000055
:100058009401000094010000940100009401000044
:100068009401000094010000940100009401000034
:100078009401000094010000940100009401000024
:100088009401000094010000940100009401000014
:100098009401000094010000940100009401000004
:1000a80094010000940100009401000094010000f4
:1000b80094010000940100009401000094010000e4
:1000c80094010000940100009401000094010000d4
:1000d80094010000940100009401000094010000c4
:1000e80094010000940100009401000094010000b4
:0800f8009401000094010000d6
:020000040000fa
:100108009401000094010000940100009401000093
:100118009401000094010000940100009401000083
:100128009401000094010000940100009401000073
:100138009401000094010000940100009401000063
:1001480094010000da010000940100004c02000054
:100158009401000094010000940100009401000043
:100168009401000094010000940100009401000033
:100178009401000094010000940100009401000023
:100188009401000094010000940100009401000013
:100198009401000094010000940100009401000003
:1001a80094010000940100009401000094010000f3
:1001b80094010000940100009401000094010000e3
:1001c80094010000940100009401000094010000d3
:1001d80094010000940100009401000094010000c3
:1001e80094010000940100009401000094010000b3
:0801f8009401000094010000d5
:020000040000fa
:10020000ef8020000eff20000e018800000000009b
:1002100000012000200288000c000700e0352000cb
:100220000100200011000700000020000000e00095
:100230000200320000000200000000006c02020018
:10024000000000000040da000000fe004440a90069
:10025000800220000000e0000300320000002000c7
:10026000a00188004440a800000006009101880019
:10027000800078000000eb0015003700e2804000ad
:1002800032a0b4009101ba00e280400032a0b40074
:100290009102ba00e280400032a0b4000002eb00fc
:1002a000472bde00f507b200602ce10004003a00a5
:1002b0000059eb008301e900fdff3e000400370018
:1002c0006128e100010032000082eb000400070019
:1002d0001101ba000200e000e8ff3a000000060049
:1002e0003159ba008301e9000c0032002159ba00eb
:1002f0008301e900080032000400e00003003a0036
:10030000e280400032a0b400f5ff370011d9ba00f6
:100310008301e900faff3a008100e800e180400033
:1003200032a0b400000006000040da000000fe0029
:020000040000fa
:100330007575000075750000757500007575000015
:1003400075000000646400006464000064640000e0
:1003500064640000640000007272000072720000a9
:100360007272000072720000720000006c6c00007b
:100370006c6c00006c6c00006c6c00006c00000089
:020000040000fa
:100380000000fa0074202000a41088000d42a9008b
:100390008d20a80075108000c4ff2f000482620029
:1003a000741088000de2a8000f42a8000080fa0037
:1003b00000000600841f78003400f80004002000cc
:1003c000a40188000000fa008520a9009410800094
:1003d000644088000080fa003400f9004f02780081
:1003e000004006000200fa00000f78000000000044
:1003f000751080000410200004826200e00f52009b
:10040000fbff32006410800066026200e60f5200bb
:1004100003003a001e0278008410880003003700b1
:10042000f40f20001e026200841088000080fa0091
:10043000000006000000fa00881f78000004780021
:100440000f003700184278000402fb000400780017
:10045000e4ff070018427800ed4f520002003a0016
:10046000a0002000dfff070018427800ea4f52008a
:1004700002003a00d0002000daff07000804e8007c
:1004800018427800e04f5200eeff3a004f04780027
:100490000080fa0000000600841f78003400f80095
:1004a00004002000a40188000000fa000414800069
:1004b0000440880014148000144088002414800034
:1004c000244088008560a9000080fa003400f9000b
:1004d0004f027800004006000400fa00000f780088
:1004e00011079800a802a900a822a900a842a90003
:1004f000c602a800c622a800c642a800de02a900c3
:10050000de22a900de82a900dea2a90030000700d9
:100510009bff0700a1e2a80005408000341f2000d7
:10052000848f520006003e0080192800c1ff07009a
:10053000e202a800e222a900e282a900f6ff370049
:1005400005408000c4da2000848f52000600360087
:10055000201a2800b7ff0700e202a900e222a80043
:10056000e282a900ecff370015408000341f200014
:10057000848f520006003e00c01a2800adff07001d
:10058000e202a900e222a900e282a800e2ff37000d
:1005900015408000c4da2000848f52000600360027
:1005a000601b2800a3ff0700e202a900e222a900c5
:1005b000e282a900d8ff3700e202a900e222a900e6
:1005c000e242a900e282a900e2a2a900d2ff37001c
:1005d0000000fa00a1a2a900041580000480a10077
:1005e0000490a10004158800041580000450a000a8
:1005f0000460a0000470a00004158800a022a800d8
:100600001415800004d0a00004e0a00004f0a000b5
:1006100014158800a342a800141580000420a1002e
:100620000430a0000440a1000450a100141588006b
:10063000a222a900a202a9002515800004f0210031
:100640000482720024158800a4e2a8002515800009
:1006500004fc2f0004826200f401b300241588001a
:10066000a782a900a682a900341580000400a10079
:100670000410a1000420a1000430a100341588005a
:10068000341580000480a1000490a10004a0a10002
:1006900004b0a100341588000002eb004415880066
:1006a0007400200054158800a042a8008560a800ae
:0c06b0008d60a8000080fa000000060029
:020000040000fa
:1006bc00000800000e000000000000000000000018
:020000040000fa
:0200000401f009
:04000000e5bf000058
:020000040000fa
:0200000401f009
:04000400ff7f00007a
:00000001FF
