:020000040000fa
:080000000001040000000000f3
:020000040000fa
:04000800fc010000f7
:020000040000fa
:04000c00fc010000f3
:020000040000fa
:04001000fc010000ef
:020000040000fa
:04001400fc010000eb
:020000040000fa
:04001800fc010000e7
:020000040000fa
:04001c00fc010000e3
:020000040000fa
:04002000fc010000df
:020000040000fa
:04002400fc010000db
:020000040000fa
:04002800fc010000d7
:020000040000fa
:04002c00fc010000d3
:020000040000fa
:04003000fc010000cf
:020000040000fa
:04003400fc010000cb
:020000040000fa
:04003800fc010000c7
:020000040000fa
:04003c00fc010000c3
:020000040000fa
:04004000fc010000bf
:020000040000fa
:04004400fc010000bb
:020000040000fa
:04004800fc010000b7
:020000040000fa
:04004c00c8010000e7
:020000040000fa
:04005000fc010000af
:020000040000fa
:04005400dc010000cb
:020000040000fa
:04005800fc010000a7
:020000040000fa
:04005c00fc010000a3
:020000040000fa
:04006000fc0100009f
:020000040000fa
:04006400fc0100009b
:020000040000fa
:04006800fc01000097
:020000040000fa
:04006c00fc01000093
:020000040000fa
:04007000fc0100008f
:020000040000fa
:04007400fc0100008b
:020000040000fa
:04007800fc01000087
:020000040000fa
:04007c00fc01000083
:020000040000fa
:04008000fc0100007f
:020000040000fa
:04008400fc0100007b
:020000040000fa
:04008800fc01000077
:020000040000fa
:04008c00fc01000073
:020000040000fa
:04009000fc0100006f
:020000040000fa
:04009400fc0100006b
:020000040000fa
:04009800fc01000067
:020000040000fa
:04009c00fc01000063
:020000040000fa
:0400a000fc0100005f
:020000040000fa
:0400a400fc0100005b
:020000040000fa
:0400a800fc01000057
:020000040000fa
:0400ac00fc01000053
:020000040000fa
:0400b000fc0100004f
:020000040000fa
:0400b400fc0100004b
:020000040000fa
:0400b800fc01000047
:020000040000fa
:0400bc00fc01000043
:020000040000fa
:0400c000fc0100003f
:020000040000fa
:0400c400fc0100003b
:020000040000fa
:0400c800fc01000037
:020000040000fa
:0400cc00fc01000033
:020000040000fa
:0400d000fc0100002f
:020000040000fa
:0400d400fc0100002b
:020000040000fa
:0400d800fc01000027
:020000040000fa
:04010800fc010000f6
:020000040000fa
:04010c00fc010000f2
:020000040000fa
:04011000fc010000ee
:020000040000fa
:04011400fc010000ea
:020000040000fa
:04011800fc010000e6
:020000040000fa
:04011c00fc010000e2
:020000040000fa
:04012000fc010000de
:020000040000fa
:04012400fc010000da
:020000040000fa
:04012800fc010000d6
:020000040000fa
:04012c00fc010000d2
:020000040000fa
:04013000fc010000ce
:020000040000fa
:04013400fc010000ca
:020000040000fa
:04013800fc010000c6
:020000040000fa
:04013c00fc010000c2
:020000040000fa
:04014000fc010000be
:020000040000fa
:04014400fc010000ba
:020000040000fa
:04014800fc010000b6
:020000040000fa
:04014c00c8010000e6
:020000040000fa
:04015000fc010000ae
:020000040000fa
:04015400dc010000ca
:020000040000fa
:04015800fc010000a6
:020000040000fa
:04015c00fc010000a2
:020000040000fa
:04016000fc0100009e
:020000040000fa
:04016400fc0100009a
:020000040000fa
:04016800fc01000096
:020000040000fa
:04016c00fc01000092
:020000040000fa
:04017000fc0100008e
:020000040000fa
:04017400fc0100008a
:020000040000fa
:04017800fc01000086
:020000040000fa
:04017c00fc01000082
:020000040000fa
:04018000fc0100007e
:020000040000fa
:04018400fc0100007a
:020000040000fa
:04018800fc01000076
:020000040000fa
:04018c00fc01000072
:020000040000fa
:04019000fc0100006e
:020000040000fa
:04019400fc0100006a
:020000040000fa
:04019800fc01000066
:020000040000fa
:04019c00fc01000062
:020000040000fa
:0401a000fc0100005e
:020000040000fa
:0401a400fc0100005a
:020000040000fa
:0401a800fc01000056
:020000040000fa
:0401ac00fc01000052
:020000040000fa
:0401b000fc0100004e
:020000040000fa
:0401b400fc0100004a
:020000040000fa
:0401b800fc01000046
:020000040000fa
:0401bc00fc01000042
:020000040000fa
:0401c000fc0100003e
:020000040000fa
:0401c400fc0100003a
:020000040000fa
:0401c800fc01000036
:020000040000fa
:0401cc00fc01000032
:020000040000fa
:0401d000fc0100002e
:020000040000fa
:0401d400fc0100002a
:020000040000fa
:0401d800fc01000026
:020000040000fa
:10020000ef8020000eff20000e018800000000009b
:10021000000020000000e000020032000001200089
:100220002002880014000700750007000000e000ad
:1002300003003a00c03a200001002000020037000d
:100240000000200001002000810f7000010032003a
:1002500014000700000020000000e000020032004f
:100260000000020000000000b002020000000000d8
:100270000040da000000fe004440a9000000200019
:100280000000e0000300320000002000a001880010
:100290004440a800000006008a1f78008b1f7800e9
:1002a0000000060091018800800478000000eb0047
:1002b0001a003700e284440032a0b4009905ba0065
:1002c000e284440032a0b4009906ba00e2844400fb
:1002d00032a0b4000006eb00476fde00fd07b2005d
:1002e000636ce10003003a00ebff07000000eb0045
:1002f0000a003700606ce10004003a00005deb008a
:100300008b05e900fdff3e00040037006168e10055
:10031000010032000086eb000b00070019c7ba008d
:100320001905ba000e04e00003003a000a00e000dc
:10033000e0ff3a0000000600fe07b2009e018800c0
:100340008a047800f5ff3700395dba008b05e900b3
:100350000c003200295dba008b05e900080032006c
:100360000c00e00003003a00e284440032a0b40034
:10037000f5ff370019ddba008b05e900faff3a00f6
:100380008904e800e184440032a0b40000000600c3
:100390003400f800881f780008002000a8018800b9
:1003a0004f0478000000fa008520a9000080fa00c0
:1003b0003400f90000400600801f78003400f80087
:1003c00000002000a00188000000fa000014800056
:1003d0000040880010148000104088002014800025
:1003e000204088008560a9000080fa003400f900f0
:1003f0004f007800004006000040da000000fe00d8
:0404000000000500f3
:020000040000fa
:100404000000fa0000042000a01088000d42a8009b
:100414008d20a80071108000c0ff2f0000806000b4
:10042400701088000de2a8000f42a8000080fa00b6
:10043400000006000200fa00000f7800000000002f
:100444007110800000102000008060000000e000b7
:10045400fbff32006010800066006000e60f500071
:1004640003003a009e0078008110880003003700e2
:10047400f00f20001e006000801088000080fa0049
:10048400000006000400fa00100798001e00900007
:10049400c300de00500c22000008b8004408de004f
:1004a400004f78001e80fb000003b000e1ff07004e
:1004b4009e80fb0080c12f000088b90000007800f6
:1004c4009e00900000804000100798001e009000dd
:1004d400c200de00b04721000008b8000100d100ce
:1004e400004f78001e80fb000003b000d1ff07001e
:1004f4009e80fb00c0f92f000088b900000078003e
:100504009e00900000804000100798009e0090001c
:10051400d0cc2c000008b8004308de00004f78005f
:100524001e80fb000003b000c2ff07009e80fb009a
:1005340060ff2f000088b900000078009e00900042
:1005440000804000100798001e0090000003b000d7
:10055400b8ff07000080fa00000006000400fa005b
:10056400000f7800110798000828ef0003003700f7
:10057400404080000000e800404088004140800086
:10058400f0702200808f5000f9ff3600a802a90005
:10059400a822a900a842a900c602a800c622a80051
:1005a400c642a800de02a900de22a900de42a9009c
:1005b400de82a900dea2a9000628ef0003003700ae
:1005c400304080000000e800304088003140800066
:1005d400f0a52e00808f5000f9ff36002a00070096
:1005e40087ff0700a1e2a800010037000000000017
:1005f400e202a900e222a900e242a900e282a900e3
:10060400e2a2a90001408000b05d2000808f50006c
:1006140004003e00e202a800e222a900e282a9004e
:10062400e2a2a90001408000409c2000808f50007d
:1006340004003600e202a900e222a800e282a90036
:10064400e2a2a90021408000b05d2000808f50000c
:1006540004003e00e202a900e222a900e282a9000d
:10066400e2a2a80021408000409c2000808f50001e
:10067400deff3600e202a900e222a900e282a8001d
:10068400e2a2a900daff37000000fa00a1a2a90043
:1006940001158000f0cf2f00008060000015880055
:1006a40001158000000e2000010070000015880074
:1006b400a022a8001115800000002e000100700087
:1006c40010158800a342a8001115800030fc2f00eb
:1006d400008060000030a00010158800a222a9004c
:1006e400a202a9002115800000f021000100700081
:1006f40020158800a4e2a8002115800000fc2f002a
:1007040000806000f001b30020158800a782a900d2
:10071400a682a9003115800000ff2f000080600030
:100724003015880031158000f00f2f000080600024
:1007340030158800a822ef007000200050158800b2
:10074400a042a8008560a8008d60a8000080fa007f
:04075400000006009b
:020000040000fa
:10075800000800000e00000000000000000000007b
:020000040000fa
:0200000401f009
:040000000587000070
:020000040000fa
:0200000401f009
:040004003f000000b9
:00000001FF
